{
  "_format": "hh-sol-artifact-1",
  "contractName": "Keyboards",
  "sourceName": "contracts/Keyboards.sol",
  "abi": [
    {
      "anonymous": false,
      "inputs": [
        {
          "components": [
            {
              "internalType": "enum Keyboards.KeyboardKind",
              "name": "kind",
              "type": "uint8"
            },
            {
              "internalType": "bool",
              "name": "isPBT",
              "type": "bool"
            },
            {
              "internalType": "string",
              "name": "filter",
              "type": "string"
            },
            {
              "internalType": "address",
              "name": "owner",
              "type": "address"
            }
          ],
          "indexed": false,
          "internalType": "struct Keyboards.Keyboard",
          "name": "keyboard",
          "type": "tuple"
        }
      ],
      "name": "KeyboardCreated",
      "type": "event"
    },
    {
      "anonymous": false,
      "inputs": [
        {
          "indexed": false,
          "internalType": "address",
          "name": "recipient",
          "type": "address"
        },
        {
          "indexed": false,
          "internalType": "uint256",
          "name": "amount",
          "type": "uint256"
        }
      ],
      "name": "TipSent",
      "type": "event"
    },
    {
      "inputs": [
        {
          "internalType": "enum Keyboards.KeyboardKind",
          "name": "_kind",
          "type": "uint8"
        },
        {
          "internalType": "bool",
          "name": "_isPBT",
          "type": "bool"
        },
        {
          "internalType": "string",
          "name": "_filter",
          "type": "string"
        }
      ],
      "name": "create",
      "outputs": [],
      "stateMutability": "nonpayable",
      "type": "function"
    },
    {
      "inputs": [
        {
          "internalType": "uint256",
          "name": "",
          "type": "uint256"
        }
      ],
      "name": "createdKeyboards",
      "outputs": [
        {
          "internalType": "enum Keyboards.KeyboardKind",
          "name": "kind",
          "type": "uint8"
        },
        {
          "internalType": "bool",
          "name": "isPBT",
          "type": "bool"
        },
        {
          "internalType": "string",
          "name": "filter",
          "type": "string"
        },
        {
          "internalType": "address",
          "name": "owner",
          "type": "address"
        }
      ],
      "stateMutability": "view",
      "type": "function"
    },
    {
      "inputs": [],
      "name": "getKeyboards",
      "outputs": [
        {
          "components": [
            {
              "internalType": "enum Keyboards.KeyboardKind",
              "name": "kind",
              "type": "uint8"
            },
            {
              "internalType": "bool",
              "name": "isPBT",
              "type": "bool"
            },
            {
              "internalType": "string",
              "name": "filter",
              "type": "string"
            },
            {
              "internalType": "address",
              "name": "owner",
              "type": "address"
            }
          ],
          "internalType": "struct Keyboards.Keyboard[]",
          "name": "",
          "type": "tuple[]"
        }
      ],
      "stateMutability": "view",
      "type": "function"
    },
    {
      "inputs": [
        {
          "internalType": "uint256",
          "name": "_index",
          "type": "uint256"
        }
      ],
      "name": "tip",
      "outputs": [],
      "stateMutability": "payable",
      "type": "function"
    }
  ],
  "bytecode": "0x608060405234801561001057600080fd5b50610d33806100206000396000f3fe60806040526004361061003f5760003560e01c806352810aa114610044578063778bc8471461006f578063d80ad431146100af578063e8b69bc3146100d8575b600080fd5b34801561005057600080fd5b506100596100f4565b6040516100669190610a74565b60405180910390f35b34801561007b57600080fd5b5061009660048036038101906100919190610830565b6102dd565b6040516100a69493929190610a96565b60405180910390f35b3480156100bb57600080fd5b506100d660048036038101906100d191906107c4565b6103df565b005b6100f260048036038101906100ed9190610830565b6105de565b005b60606000805480602002602001604051908101604052809291908181526020016000905b828210156102d457838290600052602060002090600302016040518060800160405290816000820160009054906101000a900460ff166003811115610186577f4e487b7100000000000000000000000000000000000000000000000000000000600052602160045260246000fd5b60038111156101be577f4e487b7100000000000000000000000000000000000000000000000000000000600052602160045260246000fd5b81526020016000820160019054906101000a900460ff161515151581526020016001820180546101ed90610c0a565b80601f016020809104026020016040519081016040528092919081815260200182805461021990610c0a565b80156102665780601f1061023b57610100808354040283529160200191610266565b820191906000526020600020905b81548152906001019060200180831161024957829003601f168201915b505050505081526020016002820160009054906101000a900473ffffffffffffffffffffffffffffffffffffffff1673ffffffffffffffffffffffffffffffffffffffff1673ffffffffffffffffffffffffffffffffffffffff168152505081526020019060010190610118565b50505050905090565b600081815481106102ed57600080fd5b90600052602060002090600302016000915090508060000160009054906101000a900460ff16908060000160019054906101000a900460ff169080600101805461033690610c0a565b80601f016020809104026020016040519081016040528092919081815260200182805461036290610c0a565b80156103af5780601f10610384576101008083540402835291602001916103af565b820191906000526020600020905b81548152906001019060200180831161039257829003601f168201915b5050505050908060020160009054906101000a900473ffffffffffffffffffffffffffffffffffffffff16905084565b60006040518060800160405280866003811115610425577f4e487b7100000000000000000000000000000000000000000000000000000000600052602160045260246000fd5b8152602001851515815260200184848080601f016020809104026020016040519081016040528093929190818152602001838380828437600081840152601f19601f8201169050808301925050505050505081526020013373ffffffffffffffffffffffffffffffffffffffff168152509050600081908060018154018082558091505060019003906000526020600020906003020160009091909190915060008201518160000160006101000a81548160ff02191690836003811115610515577f4e487b7100000000000000000000000000000000000000000000000000000000600052602160045260246000fd5b021790555060208201518160000160016101000a81548160ff0219169083151502179055506040820151816001019080519060200190610556929190610698565b5060608201518160020160006101000a81548173ffffffffffffffffffffffffffffffffffffffff021916908373ffffffffffffffffffffffffffffffffffffffff16021790555050507f10a5f72cc15ad697630d0470547e58335ec196e4ce08851d095d19398b1cbdd7816040516105cf9190610ae2565b60405180910390a15050505050565b6000808281548110610619577f4e487b7100000000000000000000000000000000000000000000000000000000600052603260045260246000fd5b906000526020600020906003020160020160009054906101000a900473ffffffffffffffffffffffffffffffffffffffff1690508073ffffffffffffffffffffffffffffffffffffffff166108fc349081150290604051600060405180830381858888f19350505050158015610693573d6000803e3d6000fd5b505050565b8280546106a490610c0a565b90600052602060002090601f0160209004810192826106c6576000855561070d565b82601f106106df57805160ff191683800117855561070d565b8280016001018555821561070d579182015b8281111561070c5782518255916020019190600101906106f1565b5b50905061071a919061071e565b5090565b5b8082111561073757600081600090555060010161071f565b5090565b60008135905061074a81610cbf565b92915050565b60008135905061075f81610cd6565b92915050565b60008083601f84011261077757600080fd5b8235905067ffffffffffffffff81111561079057600080fd5b6020830191508360018202830111156107a857600080fd5b9250929050565b6000813590506107be81610ce6565b92915050565b600080600080606085870312156107da57600080fd5b60006107e887828801610750565b94505060206107f98782880161073b565b935050604085013567ffffffffffffffff81111561081657600080fd5b61082287828801610765565b925092505092959194509250565b60006020828403121561084257600080fd5b6000610850848285016107af565b91505092915050565b600061086583836109ae565b905092915050565b61087681610b6a565b82525050565b61088581610b6a565b82525050565b600061089682610b14565b6108a08185610b37565b9350836020820285016108b285610b04565b8060005b858110156108ee57848403895281516108cf8582610859565b94506108da83610b2a565b925060208a019950506001810190506108b6565b50829750879550505050505092915050565b61090981610b7c565b82525050565b61091881610b7c565b82525050565b61092781610bc5565b82525050565b61093681610bc5565b82525050565b600061094782610b1f565b6109518185610b48565b9350610961818560208601610bd7565b61096a81610c9a565b840191505092915050565b600061098082610b1f565b61098a8185610b59565b935061099a818560208601610bd7565b6109a381610c9a565b840191505092915050565b60006080830160008301516109c6600086018261091e565b5060208301516109d96020860182610900565b50604083015184820360408601526109f1828261093c565b9150506060830151610a06606086018261086d565b508091505092915050565b6000608083016000830151610a29600086018261091e565b506020830151610a3c6020860182610900565b5060408301518482036040860152610a54828261093c565b9150506060830151610a69606086018261086d565b508091505092915050565b60006020820190508181036000830152610a8e818461088b565b905092915050565b6000608082019050610aab600083018761092d565b610ab8602083018661090f565b8181036040830152610aca8185610975565b9050610ad9606083018461087c565b95945050505050565b60006020820190508181036000830152610afc8184610a11565b905092915050565b6000819050602082019050919050565b600081519050919050565b600081519050919050565b6000602082019050919050565b600082825260208201905092915050565b600082825260208201905092915050565b600082825260208201905092915050565b6000610b7582610b9b565b9050919050565b60008115159050919050565b6000819050610b9682610cab565b919050565b600073ffffffffffffffffffffffffffffffffffffffff82169050919050565b6000819050919050565b6000610bd082610b88565b9050919050565b60005b83811015610bf5578082015181840152602081019050610bda565b83811115610c04576000848401525b50505050565b60006002820490506001821680610c2257607f821691505b60208210811415610c3657610c35610c6b565b5b50919050565b7f4e487b7100000000000000000000000000000000000000000000000000000000600052602160045260246000fd5b7f4e487b7100000000000000000000000000000000000000000000000000000000600052602260045260246000fd5b6000601f19601f8301169050919050565b60048110610cbc57610cbb610c3c565b5b50565b610cc881610b7c565b8114610cd357600080fd5b50565b60048110610ce357600080fd5b50565b610cef81610bbb565b8114610cfa57600080fd5b5056fea2646970667358221220d7d8fc1035ab762f021bd6e4e24728b352191fd7027d70aceb036eaf3e16f29964736f6c63430008040033",
  "linkReferences": {},
  "deployedLinkReferences": {}
}